{
  "_format": "hh-sol-artifact-1",
  "contractName": "ERC721ACoA_Intermediary",
  "sourceName": "src/backend/contracts/ERC721ACoA_Intermediary.sol",
  "abi": [
    {
      "inputs": [
        {
          "internalType": "uint256",
          "name": "_listingFee",
          "type": "uint256"
        }
      ],
      "stateMutability": "nonpayable",
      "type": "constructor"
    },
    {
      "anonymous": false,
      "inputs": [
        {
          "indexed": false,
          "internalType": "uint256",
          "name": "itemId",
          "type": "uint256"
        },
        {
          "indexed": true,
          "internalType": "address",
          "name": "nftContract",
          "type": "address"
        },
        {
          "indexed": false,
          "internalType": "uint256",
          "name": "tokenId",
          "type": "uint256"
        },
        {
          "indexed": true,
          "internalType": "address",
          "name": "claimer",
          "type": "address"
        }
      ],
      "name": "ItemClaimed",
      "type": "event"
    },
    {
      "anonymous": false,
      "inputs": [
        {
          "indexed": false,
          "internalType": "uint256",
          "name": "itemId",
          "type": "uint256"
        },
        {
          "indexed": true,
          "internalType": "address",
          "name": "nftContract",
          "type": "address"
        },
        {
          "indexed": false,
          "internalType": "uint256",
          "name": "tokenId",
          "type": "uint256"
        },
        {
          "indexed": true,
          "internalType": "address",
          "name": "lister",
          "type": "address"
        },
        {
          "indexed": true,
          "internalType": "address",
          "name": "claimer",
          "type": "address"
        }
      ],
      "name": "ItemListed",
      "type": "event"
    },
    {
      "anonymous": false,
      "inputs": [
        {
          "indexed": false,
          "internalType": "uint256",
          "name": "itemId",
          "type": "uint256"
        },
        {
          "indexed": true,
          "internalType": "address",
          "name": "nftContract",
          "type": "address"
        },
        {
          "indexed": false,
          "internalType": "uint256",
          "name": "tokenId",
          "type": "uint256"
        },
        {
          "indexed": true,
          "internalType": "address",
          "name": "unlister",
          "type": "address"
        }
      ],
      "name": "ItemUnlisted",
      "type": "event"
    },
    {
      "inputs": [
        {
          "internalType": "uint256",
          "name": "",
          "type": "uint256"
        }
      ],
      "name": "_itemsListed",
      "outputs": [
        {
          "internalType": "uint256",
          "name": "itemId",
          "type": "uint256"
        },
        {
          "internalType": "contract IERC721ACoA",
          "name": "nftContract",
          "type": "address"
        },
        {
          "internalType": "uint256",
          "name": "tokenId",
          "type": "uint256"
        },
        {
          "internalType": "uint64",
          "name": "value",
          "type": "uint64"
        },
        {
          "internalType": "bytes4",
          "name": "currency",
          "type": "bytes4"
        },
        {
          "internalType": "address",
          "name": "lister",
          "type": "address"
        },
        {
          "internalType": "address",
          "name": "claimer",
          "type": "address"
        },
        {
          "internalType": "enum ERC721ACoA_Intermediary.Status",
          "name": "status",
          "type": "uint8"
        }
      ],
      "stateMutability": "view",
      "type": "function"
    },
    {
      "inputs": [
        {
          "internalType": "uint256",
          "name": "_itemId",
          "type": "uint256"
        }
      ],
      "name": "cancellListing",
      "outputs": [],
      "stateMutability": "nonpayable",
      "type": "function"
    },
    {
      "inputs": [
        {
          "internalType": "uint256",
          "name": "_itemId",
          "type": "uint256"
        }
      ],
      "name": "claimCertificate",
      "outputs": [],
      "stateMutability": "nonpayable",
      "type": "function"
    },
    {
      "inputs": [],
      "name": "feeAcount",
      "outputs": [
        {
          "internalType": "address payable",
          "name": "",
          "type": "address"
        }
      ],
      "stateMutability": "view",
      "type": "function"
    },
    {
      "inputs": [
        {
          "internalType": "contract IERC721ACoA",
          "name": "_nftContract",
          "type": "address"
        },
        {
          "internalType": "uint256",
          "name": "_tokenId",
          "type": "uint256"
        },
        {
          "internalType": "uint64",
          "name": "_objectValue",
          "type": "uint64"
        },
        {
          "internalType": "string",
          "name": "_currency",
          "type": "string"
        },
        {
          "internalType": "address",
          "name": "_claimer",
          "type": "address"
        }
      ],
      "name": "listCertificate",
      "outputs": [],
      "stateMutability": "nonpayable",
      "type": "function"
    },
    {
      "inputs": [],
      "name": "listedAmount",
      "outputs": [
        {
          "internalType": "uint256",
          "name": "listed",
          "type": "uint256"
        }
      ],
      "stateMutability": "view",
      "type": "function"
    },
    {
      "inputs": [],
      "name": "listingFee",
      "outputs": [
        {
          "internalType": "uint256",
          "name": "",
          "type": "uint256"
        }
      ],
      "stateMutability": "view",
      "type": "function"
    },
    {
      "inputs": [
        {
          "internalType": "address",
          "name": "",
          "type": "address"
        },
        {
          "internalType": "address",
          "name": "",
          "type": "address"
        },
        {
          "internalType": "uint256",
          "name": "",
          "type": "uint256"
        },
        {
          "internalType": "bytes",
          "name": "",
          "type": "bytes"
        }
      ],
      "name": "onERC721Received",
      "outputs": [
        {
          "internalType": "bytes4",
          "name": "",
          "type": "bytes4"
        }
      ],
      "stateMutability": "nonpayable",
      "type": "function"
    }
  ],
  "bytecode": "0x60c06040523480156200001157600080fd5b50604051620025b1380380620025b18339818101604052810190620000379190620000c2565b60016000819055503373ffffffffffffffffffffffffffffffffffffffff1660808173ffffffffffffffffffffffffffffffffffffffff16815250508060a0818152505050620000f4565b600080fd5b6000819050919050565b6200009c8162000087565b8114620000a857600080fd5b50565b600081519050620000bc8162000091565b92915050565b600060208284031215620000db57620000da62000082565b5b6000620000eb84828501620000ab565b91505092915050565b60805160a0516124976200011a6000396000610a00015260006109cb01526124976000f3fe608060405234801561001057600080fd5b50600436106100885760003560e01c806367aa541c1161005b57806367aa541c146101135780636a1b7ecc146101315780637c8b93f41461014f578063d9a26b3b1461018657610088565b8063150b7a021461008d5780633c47b4c4146100bd57806349b9a763146100d95780635d145a24146100f5575b600080fd5b6100a760048036038101906100a29190611698565b6101a2565b6040516100b49190611756565b60405180910390f35b6100d760048036038101906100d2919061184f565b6101b6565b005b6100f360048036038101906100ee91906118e9565b6106e4565b005b6100fd6109c9565b60405161010a9190611937565b60405180910390f35b61011b6109ed565b6040516101289190611961565b60405180910390f35b6101396109fe565b6040516101469190611961565b60405180910390f35b610169600480360381019061016491906118e9565b610a22565b60405161017d989796959493929190611a70565b60405180910390f35b6101a0600480360381019061019b91906118e9565b610af8565b005b600063150b7a0260e01b9050949350505050565b6101be610f9b565b6101c6610fea565b73ffffffffffffffffffffffffffffffffffffffff168673ffffffffffffffffffffffffffffffffffffffff16636352211e876040518263ffffffff1660e01b81526004016102159190611961565b602060405180830381865afa158015610232573d6000803e3d6000fd5b505050506040513d601f19601f820116820180604052508101906102569190611b03565b73ffffffffffffffffffffffffffffffffffffffff161461027d610278610fea565b610ff2565b60405160200161028d9190611c39565b604051602081830303815290604052906102dd576040517f08c379a00000000000000000000000000000000000000000000000000000000081526004016102d49190611cb0565b60405180910390fd5b508573ffffffffffffffffffffffffffffffffffffffff1663e985e9c5610302610fea565b306040518363ffffffff1660e01b8152600401610320929190611cd2565b602060405180830381865afa15801561033d573d6000803e3d6000fd5b505050506040513d601f19601f820116820180604052508101906103619190611d33565b61036a30610ff2565b60405160200161037a9190611e1e565b604051602081830303815290604052906103ca576040517f08c379a00000000000000000000000000000000000000000000000000000000081526004016103c19190611cb0565b60405180910390fd5b5060006103d7600161101f565b90506103e3600161102d565b6040518061010001604052808281526020018873ffffffffffffffffffffffffffffffffffffffff1681526020018781526020018667ffffffffffffffff168152602001858560405160200161043a929190611e70565b60405160208183030381529060405261045290611ec6565b7bffffffffffffffffffffffffffffffffffffffffffffffffffffffff1916815260200161047e610fea565b73ffffffffffffffffffffffffffffffffffffffff1681526020018373ffffffffffffffffffffffffffffffffffffffff168152602001600160028111156104c9576104c86119f9565b5b815250600260008381526020019081526020016000206000820151816000015560208201518160010160006101000a81548173ffffffffffffffffffffffffffffffffffffffff021916908373ffffffffffffffffffffffffffffffffffffffff1602179055506040820151816002015560608201518160030160006101000a81548167ffffffffffffffff021916908367ffffffffffffffff16021790555060808201518160030160086101000a81548163ffffffff021916908360e01c021790555060a082015181600301600c6101000a81548173ffffffffffffffffffffffffffffffffffffffff021916908373ffffffffffffffffffffffffffffffffffffffff16021790555060c08201518160040160006101000a81548173ffffffffffffffffffffffffffffffffffffffff021916908373ffffffffffffffffffffffffffffffffffffffff16021790555060e08201518160040160146101000a81548160ff02191690836002811115610646576106456119f9565b5b02179055509050508173ffffffffffffffffffffffffffffffffffffffff1661066d610fea565b73ffffffffffffffffffffffffffffffffffffffff168873ffffffffffffffffffffffffffffffffffffffff167f1361183d3619b83f772e8c55c1fb823a1d95ee5f906e8dd77a4ca29dfccaf03d848a6040516106cb929190611f2d565b60405180910390a4506106dc611043565b505050505050565b6106ec610f9b565b60006106f8600161101f565b90506000821015801561070a57508082105b6107138361104d565b6040516020016107239190611fee565b60405160208183030381529060405290610773576040517f08c379a000000000000000000000000000000000000000000000000000000000815260040161076a9190611cb0565b60405180910390fd5b50600060026000848152602001908152602001600020905080600301600c9054906101000a900473ffffffffffffffffffffffffffffffffffffffff1673ffffffffffffffffffffffffffffffffffffffff166107ce610fea565b73ffffffffffffffffffffffffffffffffffffffff16146107f56107f0610fea565b610ff2565b6040516020016108059190612067565b60405160208183030381529060405290610855576040517f08c379a000000000000000000000000000000000000000000000000000000000815260040161084c9190611cb0565b60405180910390fd5b506001600281111561086a576108696119f9565b5b8160040160149054906101000a900460ff16600281111561088e5761088d6119f9565b5b146108988461104d565b6040516020016108a89190612106565b604051602081830303815290604052906108f8576040517f08c379a00000000000000000000000000000000000000000000000000000000081526004016108ef9190611cb0565b60405180910390fd5b5060008160040160146101000a81548160ff02191690836002811115610921576109206119f9565b5b021790555061092e610fea565b73ffffffffffffffffffffffffffffffffffffffff168160010160009054906101000a900473ffffffffffffffffffffffffffffffffffffffff1673ffffffffffffffffffffffffffffffffffffffff167f719f17bfa6d819bf3a088c5e64dfae60d609f271b8f537d6690c90b5000b1d588584600201546040516109b4929190611f2d565b60405180910390a350506109c6611043565b50565b7f000000000000000000000000000000000000000000000000000000000000000081565b60006109f9600161101f565b905090565b7f000000000000000000000000000000000000000000000000000000000000000081565b60026020528060005260406000206000915090508060000154908060010160009054906101000a900473ffffffffffffffffffffffffffffffffffffffff16908060020154908060030160009054906101000a900467ffffffffffffffff16908060030160089054906101000a900460e01b9080600301600c9054906101000a900473ffffffffffffffffffffffffffffffffffffffff16908060040160009054906101000a900473ffffffffffffffffffffffffffffffffffffffff16908060040160149054906101000a900460ff16905088565b610b00610f9b565b6000610b0c600161101f565b905060008210158015610b1e57508082105b610b278361104d565b604051602001610b379190611fee565b60405160208183030381529060405290610b87576040517f08c379a0000000000000000000000000000000000000000000000000000000008152600401610b7e9190611cb0565b60405180910390fd5b5060006002600084815260200190815260200160002090508060040160009054906101000a900473ffffffffffffffffffffffffffffffffffffffff1673ffffffffffffffffffffffffffffffffffffffff16610be2610fea565b73ffffffffffffffffffffffffffffffffffffffff1614610c09610c04610fea565b610ff2565b604051602001610c19919061217f565b60405160208183030381529060405290610c69576040517f08c379a0000000000000000000000000000000000000000000000000000000008152600401610c609190611cb0565b60405180910390fd5b5060016002811115610c7e57610c7d6119f9565b5b8160040160149054906101000a900460ff166002811115610ca257610ca16119f9565b5b14610cac8461104d565b604051602001610cbc9190612106565b60405160208183030381529060405290610d0c576040517f08c379a0000000000000000000000000000000000000000000000000000000008152600401610d039190611cb0565b60405180910390fd5b5060028160040160146101000a81548160ff02191690836002811115610d3557610d346119f9565b5b02179055508060010160009054906101000a900473ffffffffffffffffffffffffffffffffffffffff1673ffffffffffffffffffffffffffffffffffffffff16632aca315382600201548360030160009054906101000a900467ffffffffffffffff168460030160089054906101000a900460e01b604051602001610dba91906121cd565b6040516020818303038152906040526040518463ffffffff1660e01b8152600401610de7939291906121e8565b600060405180830381600087803b158015610e0157600080fd5b505af1158015610e15573d6000803e3d6000fd5b505050508060010160009054906101000a900473ffffffffffffffffffffffffffffffffffffffff1673ffffffffffffffffffffffffffffffffffffffff166342842e0e82600301600c9054906101000a900473ffffffffffffffffffffffffffffffffffffffff168360040160009054906101000a900473ffffffffffffffffffffffffffffffffffffffff1684600201546040518463ffffffff1660e01b8152600401610ec693929190612226565b600060405180830381600087803b158015610ee057600080fd5b505af1158015610ef4573d6000803e3d6000fd5b50505050610f00610fea565b73ffffffffffffffffffffffffffffffffffffffff168160010160009054906101000a900473ffffffffffffffffffffffffffffffffffffffff1673ffffffffffffffffffffffffffffffffffffffff167ffbc2604a48c53243be94c5fe4eabbd246dfaf022ecaa6748802f8f7ebd9fe22c858460020154604051610f86929190611f2d565b60405180910390a35050610f98611043565b50565b600260005403610fe0576040517f08c379a0000000000000000000000000000000000000000000000000000000008152600401610fd7906122a9565b60405180910390fd5b6002600081905550565b600033905090565b60606110188273ffffffffffffffffffffffffffffffffffffffff16601460ff1661111b565b9050919050565b600081600001549050919050565b6001816000016000828254019250508190555050565b6001600081905550565b60606000600161105c84611357565b01905060008167ffffffffffffffff81111561107b5761107a61156d565b5b6040519080825280601f01601f1916602001820160405280156110ad5781602001600182028036833780820191505090505b509050600082602001820190505b600115611110578080600190039150507f3031323334353637383961626364656600000000000000000000000000000000600a86061a8153600a8581611104576111036122c9565b5b049450600085036110bb575b819350505050919050565b60606000600283600261112e9190612327565b6111389190612369565b67ffffffffffffffff8111156111515761115061156d565b5b6040519080825280601f01601f1916602001820160405280156111835781602001600182028036833780820191505090505b5090507f3000000000000000000000000000000000000000000000000000000000000000816000815181106111bb576111ba61239d565b5b60200101907effffffffffffffffffffffffffffffffffffffffffffffffffffffffffffff1916908160001a9053507f78000000000000000000000000000000000000000000000000000000000000008160018151811061121f5761121e61239d565b5b60200101907effffffffffffffffffffffffffffffffffffffffffffffffffffffffffffff1916908160001a9053506000600184600261125f9190612327565b6112699190612369565b90505b6001811115611309577f3031323334353637383961626364656600000000000000000000000000000000600f8616601081106112ab576112aa61239d565b5b1a60f81b8282815181106112c2576112c161239d565b5b60200101907effffffffffffffffffffffffffffffffffffffffffffffffffffffffffffff1916908160001a905350600485901c945080611302906123cc565b905061126c565b506000841461134d576040517f08c379a000000000000000000000000000000000000000000000000000000000815260040161134490612441565b60405180910390fd5b8091505092915050565b600080600090507a184f03e93ff9f4daa797ed6e38ed64bf6a1f01000000000000000083106113b5577a184f03e93ff9f4daa797ed6e38ed64bf6a1f01000000000000000083816113ab576113aa6122c9565b5b0492506040810190505b6d04ee2d6d415b85acef810000000083106113f2576d04ee2d6d415b85acef810000000083816113e8576113e76122c9565b5b0492506020810190505b662386f26fc10000831061142157662386f26fc100008381611417576114166122c9565b5b0492506010810190505b6305f5e100831061144a576305f5e10083816114405761143f6122c9565b5b0492506008810190505b612710831061146f576127108381611465576114646122c9565b5b0492506004810190505b606483106114925760648381611488576114876122c9565b5b0492506002810190505b600a83106114a1576001810190505b80915050919050565b6000604051905090565b600080fd5b600080fd5b600073ffffffffffffffffffffffffffffffffffffffff82169050919050565b60006114e9826114be565b9050919050565b6114f9816114de565b811461150457600080fd5b50565b600081359050611516816114f0565b92915050565b6000819050919050565b61152f8161151c565b811461153a57600080fd5b50565b60008135905061154c81611526565b92915050565b600080fd5b600080fd5b6000601f19601f8301169050919050565b7f4e487b7100000000000000000000000000000000000000000000000000000000600052604160045260246000fd5b6115a58261155c565b810181811067ffffffffffffffff821117156115c4576115c361156d565b5b80604052505050565b60006115d76114aa565b90506115e3828261159c565b919050565b600067ffffffffffffffff8211156116035761160261156d565b5b61160c8261155c565b9050602081019050919050565b82818337600083830152505050565b600061163b611636846115e8565b6115cd565b90508281526020810184848401111561165757611656611557565b5b611662848285611619565b509392505050565b600082601f83011261167f5761167e611552565b5b813561168f848260208601611628565b91505092915050565b600080600080608085870312156116b2576116b16114b4565b5b60006116c087828801611507565b94505060206116d187828801611507565b93505060406116e28782880161153d565b925050606085013567ffffffffffffffff811115611703576117026114b9565b5b61170f8782880161166a565b91505092959194509250565b60007fffffffff0000000000000000000000000000000000000000000000000000000082169050919050565b6117508161171b565b82525050565b600060208201905061176b6000830184611747565b92915050565b600061177c826114de565b9050919050565b61178c81611771565b811461179757600080fd5b50565b6000813590506117a981611783565b92915050565b600067ffffffffffffffff82169050919050565b6117cc816117af565b81146117d757600080fd5b50565b6000813590506117e9816117c3565b92915050565b600080fd5b600080fd5b60008083601f84011261180f5761180e611552565b5b8235905067ffffffffffffffff81111561182c5761182b6117ef565b5b602083019150836001820283011115611848576118476117f4565b5b9250929050565b60008060008060008060a0878903121561186c5761186b6114b4565b5b600061187a89828a0161179a565b965050602061188b89828a0161153d565b955050604061189c89828a016117da565b945050606087013567ffffffffffffffff8111156118bd576118bc6114b9565b5b6118c989828a016117f9565b935093505060806118dc89828a01611507565b9150509295509295509295565b6000602082840312156118ff576118fe6114b4565b5b600061190d8482850161153d565b91505092915050565b6000611921826114be565b9050919050565b61193181611916565b82525050565b600060208201905061194c6000830184611928565b92915050565b61195b8161151c565b82525050565b60006020820190506119766000830184611952565b92915050565b6000819050919050565b60006119a161199c611997846114be565b61197c565b6114be565b9050919050565b60006119b382611986565b9050919050565b60006119c5826119a8565b9050919050565b6119d5816119ba565b82525050565b6119e4816117af565b82525050565b6119f3816114de565b82525050565b7f4e487b7100000000000000000000000000000000000000000000000000000000600052602160045260246000fd5b60038110611a3957611a386119f9565b5b50565b6000819050611a4a82611a28565b919050565b6000611a5a82611a3c565b9050919050565b611a6a81611a4f565b82525050565b600061010082019050611a86600083018b611952565b611a93602083018a6119cc565b611aa06040830189611952565b611aad60608301886119db565b611aba6080830187611747565b611ac760a08301866119ea565b611ad460c08301856119ea565b611ae160e0830184611a61565b9998505050505050505050565b600081519050611afd816114f0565b92915050565b600060208284031215611b1957611b186114b4565b5b6000611b2784828501611aee565b91505092915050565b600081905092915050565b7f496e7465726d6564696172793a206163636f756e742000000000000000000000600082015250565b6000611b71601683611b30565b9150611b7c82611b3b565b601682019050919050565b600081519050919050565b60005b83811015611bb0578082015181840152602081019050611b95565b60008484015250505050565b6000611bc782611b87565b611bd18185611b30565b9350611be1818560208601611b92565b80840191505092915050565b7f206973206e6f7420746f6b656e206f776e657200000000000000000000000000600082015250565b6000611c23601383611b30565b9150611c2e82611bed565b601382019050919050565b6000611c4482611b64565b9150611c508284611bbc565b9150611c5b82611c16565b915081905092915050565b600082825260208201905092915050565b6000611c8282611b87565b611c8c8185611c66565b9350611c9c818560208601611b92565b611ca58161155c565b840191505092915050565b60006020820190508181036000830152611cca8184611c77565b905092915050565b6000604082019050611ce760008301856119ea565b611cf460208301846119ea565b9392505050565b60008115159050919050565b611d1081611cfb565b8114611d1b57600080fd5b50565b600081519050611d2d81611d07565b92915050565b600060208284031215611d4957611d486114b4565b5b6000611d5784828501611d1e565b91505092915050565b7f496e7465726d6564696172793a20000000000000000000000000000000000000600082015250565b6000611d96600e83611b30565b9150611da182611d60565b600e82019050919050565b7f20636f6e7472616374206d757374206265206170706f766520627920746f6b6560008201527f6e206f776e657200000000000000000000000000000000000000000000000000602082015250565b6000611e08602783611b30565b9150611e1382611dac565b602782019050919050565b6000611e2982611d89565b9150611e358284611bbc565b9150611e4082611dfb565b915081905092915050565b6000611e578385611b30565b9350611e64838584611619565b82840190509392505050565b6000611e7d828486611e4b565b91508190509392505050565b600081519050919050565b6000819050602082019050919050565b6000611eb0825161171b565b80915050919050565b600082821b905092915050565b6000611ed182611e89565b82611edb84611e94565b9050611ee681611ea4565b92506004821015611f2657611f217fffffffff0000000000000000000000000000000000000000000000000000000083600403600802611eb9565b831692505b5050919050565b6000604082019050611f426000830185611952565b611f4f6020830184611952565b9392505050565b7f496e7465726d6564696172793a206974656d4964200000000000000000000000600082015250565b6000611f8c601583611b30565b9150611f9782611f56565b601582019050919050565b7f20646f6573206e6f742065786973740000000000000000000000000000000000600082015250565b6000611fd8600f83611b30565b9150611fe382611fa2565b600f82019050919050565b6000611ff982611f7f565b91506120058284611bbc565b915061201082611fcb565b915081905092915050565b7f206973206e6f74206974656d206c697374657200000000000000000000000000600082015250565b6000612051601383611b30565b915061205c8261201b565b601382019050919050565b600061207282611d89565b915061207e8284611bbc565b915061208982612044565b915081905092915050565b7f2068617320616c6c7265616479206265656e20636c61696d6564206f7220756e60008201527f6c69737465640000000000000000000000000000000000000000000000000000602082015250565b60006120f0602683611b30565b91506120fb82612094565b602682019050919050565b600061211182611f7f565b915061211d8284611bbc565b9150612128826120e3565b915081905092915050565b7f206973206e6f74206974656d207065726d6974656420636c61696d6572000000600082015250565b6000612169601d83611b30565b915061217482612133565b601d82019050919050565b600061218a82611d89565b91506121968284611bbc565b91506121a18261215c565b915081905092915050565b6000819050919050565b6121c76121c28261171b565b6121ac565b82525050565b60006121d982846121b6565b60048201915081905092915050565b60006060820190506121fd6000830186611952565b61220a60208301856119db565b818103604083015261221c8184611c77565b9050949350505050565b600060608201905061223b60008301866119ea565b61224860208301856119ea565b6122556040830184611952565b949350505050565b7f5265656e7472616e637947756172643a207265656e7472616e742063616c6c00600082015250565b6000612293601f83611c66565b915061229e8261225d565b602082019050919050565b600060208201905081810360008301526122c281612286565b9050919050565b7f4e487b7100000000000000000000000000000000000000000000000000000000600052601260045260246000fd5b7f4e487b7100000000000000000000000000000000000000000000000000000000600052601160045260246000fd5b60006123328261151c565b915061233d8361151c565b925082820261234b8161151c565b91508282048414831517612362576123616122f8565b5b5092915050565b60006123748261151c565b915061237f8361151c565b9250828201905080821115612397576123966122f8565b5b92915050565b7f4e487b7100000000000000000000000000000000000000000000000000000000600052603260045260246000fd5b60006123d78261151c565b9150600082036123ea576123e96122f8565b5b600182039050919050565b7f537472696e67733a20686578206c656e67746820696e73756666696369656e74600082015250565b600061242b602083611c66565b9150612436826123f5565b602082019050919050565b6000602082019050818103600083015261245a8161241e565b905091905056fea2646970667358221220737f30cc445150ba62e2744d262ab4c48daef5c5b2e587d27323190e9ac35f1b64736f6c63430008130033",
  "linkReferences": {},
  "deployedLinkReferences": {}
}