{
  "_format": "hh-sol-artifact-1",
  "contractName": "ERC721CoA",
  "sourceName": "src/backend/contracts/ERC721CoA.sol",
  "abi": [
    {
      "inputs": [],
      "stateMutability": "nonpayable",
      "type": "constructor"
    },
    {
      "anonymous": false,
      "inputs": [
        {
          "indexed": true,
          "internalType": "address",
          "name": "owner",
          "type": "address"
        },
        {
          "indexed": true,
          "internalType": "address",
          "name": "approved",
          "type": "address"
        },
        {
          "indexed": true,
          "internalType": "uint256",
          "name": "tokenId",
          "type": "uint256"
        }
      ],
      "name": "Approval",
      "type": "event"
    },
    {
      "anonymous": false,
      "inputs": [
        {
          "indexed": true,
          "internalType": "address",
          "name": "owner",
          "type": "address"
        },
        {
          "indexed": true,
          "internalType": "address",
          "name": "operator",
          "type": "address"
        },
        {
          "indexed": false,
          "internalType": "bool",
          "name": "approved",
          "type": "bool"
        }
      ],
      "name": "ApprovalForAll",
      "type": "event"
    },
    {
      "anonymous": false,
      "inputs": [
        {
          "indexed": false,
          "internalType": "uint256",
          "name": "_fromTokenId",
          "type": "uint256"
        },
        {
          "indexed": false,
          "internalType": "uint256",
          "name": "_toTokenId",
          "type": "uint256"
        }
      ],
      "name": "BatchMetadataUpdate",
      "type": "event"
    },
    {
      "anonymous": false,
      "inputs": [
        {
          "indexed": false,
          "internalType": "uint256",
          "name": "_tokenId",
          "type": "uint256"
        }
      ],
      "name": "MetadataUpdate",
      "type": "event"
    },
    {
      "anonymous": false,
      "inputs": [
        {
          "indexed": true,
          "internalType": "uint256",
          "name": "tokenId",
          "type": "uint256"
        },
        {
          "indexed": true,
          "internalType": "string",
          "name": "artist",
          "type": "string"
        },
        {
          "indexed": true,
          "internalType": "string",
          "name": "objectName",
          "type": "string"
        }
      ],
      "name": "Minted",
      "type": "event"
    },
    {
      "anonymous": false,
      "inputs": [
        {
          "indexed": true,
          "internalType": "bytes32",
          "name": "role",
          "type": "bytes32"
        },
        {
          "indexed": true,
          "internalType": "bytes32",
          "name": "previousAdminRole",
          "type": "bytes32"
        },
        {
          "indexed": true,
          "internalType": "bytes32",
          "name": "newAdminRole",
          "type": "bytes32"
        }
      ],
      "name": "RoleAdminChanged",
      "type": "event"
    },
    {
      "anonymous": false,
      "inputs": [
        {
          "indexed": true,
          "internalType": "bytes32",
          "name": "role",
          "type": "bytes32"
        },
        {
          "indexed": true,
          "internalType": "address",
          "name": "account",
          "type": "address"
        },
        {
          "indexed": true,
          "internalType": "address",
          "name": "sender",
          "type": "address"
        }
      ],
      "name": "RoleGranted",
      "type": "event"
    },
    {
      "anonymous": false,
      "inputs": [
        {
          "indexed": true,
          "internalType": "bytes32",
          "name": "role",
          "type": "bytes32"
        },
        {
          "indexed": true,
          "internalType": "address",
          "name": "account",
          "type": "address"
        },
        {
          "indexed": true,
          "internalType": "address",
          "name": "sender",
          "type": "address"
        }
      ],
      "name": "RoleRevoked",
      "type": "event"
    },
    {
      "anonymous": false,
      "inputs": [
        {
          "indexed": true,
          "internalType": "address",
          "name": "from",
          "type": "address"
        },
        {
          "indexed": true,
          "internalType": "address",
          "name": "to",
          "type": "address"
        },
        {
          "indexed": true,
          "internalType": "uint256",
          "name": "tokenId",
          "type": "uint256"
        }
      ],
      "name": "Transfer",
      "type": "event"
    },
    {
      "inputs": [],
      "name": "AUTHENTICATOR_ROLE",
      "outputs": [
        {
          "internalType": "bytes32",
          "name": "",
          "type": "bytes32"
        }
      ],
      "stateMutability": "view",
      "type": "function"
    },
    {
      "inputs": [],
      "name": "DEFAULT_ADMIN_ROLE",
      "outputs": [
        {
          "internalType": "bytes32",
          "name": "",
          "type": "bytes32"
        }
      ],
      "stateMutability": "view",
      "type": "function"
    },
    {
      "inputs": [],
      "name": "MINTER_ROLE",
      "outputs": [
        {
          "internalType": "bytes32",
          "name": "",
          "type": "bytes32"
        }
      ],
      "stateMutability": "view",
      "type": "function"
    },
    {
      "inputs": [
        {
          "internalType": "address",
          "name": "to",
          "type": "address"
        },
        {
          "internalType": "uint256",
          "name": "tokenId",
          "type": "uint256"
        }
      ],
      "name": "approve",
      "outputs": [],
      "stateMutability": "nonpayable",
      "type": "function"
    },
    {
      "inputs": [
        {
          "internalType": "uint256",
          "name": "tokenId",
          "type": "uint256"
        }
      ],
      "name": "authnticateToken",
      "outputs": [
        {
          "internalType": "string",
          "name": "",
          "type": "string"
        }
      ],
      "stateMutability": "view",
      "type": "function"
    },
    {
      "inputs": [
        {
          "internalType": "address",
          "name": "owner",
          "type": "address"
        }
      ],
      "name": "balanceOf",
      "outputs": [
        {
          "internalType": "uint256",
          "name": "",
          "type": "uint256"
        }
      ],
      "stateMutability": "view",
      "type": "function"
    },
    {
      "inputs": [
        {
          "internalType": "uint256",
          "name": "tokenId",
          "type": "uint256"
        }
      ],
      "name": "getApproved",
      "outputs": [
        {
          "internalType": "address",
          "name": "",
          "type": "address"
        }
      ],
      "stateMutability": "view",
      "type": "function"
    },
    {
      "inputs": [
        {
          "internalType": "bytes32",
          "name": "role",
          "type": "bytes32"
        }
      ],
      "name": "getRoleAdmin",
      "outputs": [
        {
          "internalType": "bytes32",
          "name": "",
          "type": "bytes32"
        }
      ],
      "stateMutability": "view",
      "type": "function"
    },
    {
      "inputs": [
        {
          "internalType": "bytes32",
          "name": "role",
          "type": "bytes32"
        },
        {
          "internalType": "address",
          "name": "account",
          "type": "address"
        }
      ],
      "name": "grantRole",
      "outputs": [],
      "stateMutability": "nonpayable",
      "type": "function"
    },
    {
      "inputs": [
        {
          "internalType": "bytes32",
          "name": "role",
          "type": "bytes32"
        },
        {
          "internalType": "address",
          "name": "account",
          "type": "address"
        }
      ],
      "name": "hasRole",
      "outputs": [
        {
          "internalType": "bool",
          "name": "",
          "type": "bool"
        }
      ],
      "stateMutability": "view",
      "type": "function"
    },
    {
      "inputs": [
        {
          "internalType": "address",
          "name": "owner",
          "type": "address"
        },
        {
          "internalType": "address",
          "name": "operator",
          "type": "address"
        }
      ],
      "name": "isApprovedForAll",
      "outputs": [
        {
          "internalType": "bool",
          "name": "",
          "type": "bool"
        }
      ],
      "stateMutability": "view",
      "type": "function"
    },
    {
      "inputs": [],
      "name": "mintedTokens",
      "outputs": [
        {
          "internalType": "uint256",
          "name": "currentTokenId",
          "type": "uint256"
        }
      ],
      "stateMutability": "view",
      "type": "function"
    },
    {
      "inputs": [],
      "name": "name",
      "outputs": [
        {
          "internalType": "string",
          "name": "",
          "type": "string"
        }
      ],
      "stateMutability": "view",
      "type": "function"
    },
    {
      "inputs": [
        {
          "internalType": "uint256",
          "name": "tokenId",
          "type": "uint256"
        }
      ],
      "name": "ownerOf",
      "outputs": [
        {
          "internalType": "address",
          "name": "",
          "type": "address"
        }
      ],
      "stateMutability": "view",
      "type": "function"
    },
    {
      "inputs": [
        {
          "internalType": "bytes32",
          "name": "role",
          "type": "bytes32"
        },
        {
          "internalType": "address",
          "name": "account",
          "type": "address"
        }
      ],
      "name": "renounceRole",
      "outputs": [],
      "stateMutability": "nonpayable",
      "type": "function"
    },
    {
      "inputs": [
        {
          "internalType": "bytes32",
          "name": "role",
          "type": "bytes32"
        },
        {
          "internalType": "address",
          "name": "account",
          "type": "address"
        }
      ],
      "name": "revokeRole",
      "outputs": [],
      "stateMutability": "nonpayable",
      "type": "function"
    },
    {
      "inputs": [
        {
          "internalType": "address",
          "name": "to",
          "type": "address"
        },
        {
          "internalType": "string",
          "name": "uri",
          "type": "string"
        },
        {
          "internalType": "string",
          "name": "authuri",
          "type": "string"
        },
        {
          "internalType": "string",
          "name": "artistName",
          "type": "string"
        },
        {
          "internalType": "string",
          "name": "objectName",
          "type": "string"
        }
      ],
      "name": "safeMintTo",
      "outputs": [],
      "stateMutability": "nonpayable",
      "type": "function"
    },
    {
      "inputs": [
        {
          "internalType": "address",
          "name": "from",
          "type": "address"
        },
        {
          "internalType": "address",
          "name": "to",
          "type": "address"
        },
        {
          "internalType": "uint256",
          "name": "tokenId",
          "type": "uint256"
        }
      ],
      "name": "safeTransferFrom",
      "outputs": [],
      "stateMutability": "nonpayable",
      "type": "function"
    },
    {
      "inputs": [
        {
          "internalType": "address",
          "name": "from",
          "type": "address"
        },
        {
          "internalType": "address",
          "name": "to",
          "type": "address"
        },
        {
          "internalType": "uint256",
          "name": "tokenId",
          "type": "uint256"
        },
        {
          "internalType": "bytes",
          "name": "data",
          "type": "bytes"
        }
      ],
      "name": "safeTransferFrom",
      "outputs": [],
      "stateMutability": "nonpayable",
      "type": "function"
    },
    {
      "inputs": [
        {
          "internalType": "address",
          "name": "operator",
          "type": "address"
        },
        {
          "internalType": "bool",
          "name": "approved",
          "type": "bool"
        }
      ],
      "name": "setApprovalForAll",
      "outputs": [],
      "stateMutability": "nonpayable",
      "type": "function"
    },
    {
      "inputs": [
        {
          "internalType": "bytes4",
          "name": "interfaceId",
          "type": "bytes4"
        }
      ],
      "name": "supportsInterface",
      "outputs": [
        {
          "internalType": "bool",
          "name": "",
          "type": "bool"
        }
      ],
      "stateMutability": "view",
      "type": "function"
    },
    {
      "inputs": [],
      "name": "symbol",
      "outputs": [
        {
          "internalType": "string",
          "name": "",
          "type": "string"
        }
      ],
      "stateMutability": "view",
      "type": "function"
    },
    {
      "inputs": [
        {
          "internalType": "uint256",
          "name": "tokenId",
          "type": "uint256"
        }
      ],
      "name": "tokenURI",
      "outputs": [
        {
          "internalType": "string",
          "name": "",
          "type": "string"
        }
      ],
      "stateMutability": "view",
      "type": "function"
    },
    {
      "inputs": [
        {
          "internalType": "address",
          "name": "from",
          "type": "address"
        },
        {
          "internalType": "address",
          "name": "to",
          "type": "address"
        },
        {
          "internalType": "uint256",
          "name": "tokenId",
          "type": "uint256"
        }
      ],
      "name": "transferFrom",
      "outputs": [],
      "stateMutability": "nonpayable",
      "type": "function"
    }
  ],
  "bytecode": "0x60806040523480156200001157600080fd5b506040518060400160405280600981526020017f455243373231436f4100000000000000000000000000000000000000000000008152506040518060400160405280600381526020017f434f41000000000000000000000000000000000000000000000000000000000081525081600090816200008f919062000502565b508060019081620000a1919062000502565b505050620000b96000801b336200012360201b60201c565b620000eb7f9f2df0fed2c77648de5860a4cc508cd0818c85b8b8a1ab4ceeef8d981c8956a6336200012360201b60201c565b6200011d7f190acb99f29d9641c9ad47655049f2d7c78fcbc837d62e7981d28c871f722081336200012360201b60201c565b620005e9565b6200013582826200021560201b60201c565b620002115760016007600084815260200190815260200160002060000160008373ffffffffffffffffffffffffffffffffffffffff1673ffffffffffffffffffffffffffffffffffffffff16815260200190815260200160002060006101000a81548160ff021916908315150217905550620001b66200028060201b60201c565b73ffffffffffffffffffffffffffffffffffffffff168173ffffffffffffffffffffffffffffffffffffffff16837f2f8788117e7eff1d82e926ec794901d17c78024a50270940304540a733656f0d60405160405180910390a45b5050565b60006007600084815260200190815260200160002060000160008373ffffffffffffffffffffffffffffffffffffffff1673ffffffffffffffffffffffffffffffffffffffff16815260200190815260200160002060009054906101000a900460ff16905092915050565b600033905090565b600081519050919050565b7f4e487b7100000000000000000000000000000000000000000000000000000000600052604160045260246000fd5b7f4e487b7100000000000000000000000000000000000000000000000000000000600052602260045260246000fd5b600060028204905060018216806200030a57607f821691505b60208210810362000320576200031f620002c2565b5b50919050565b60008190508160005260206000209050919050565b60006020601f8301049050919050565b600082821b905092915050565b6000600883026200038a7fffffffffffffffffffffffffffffffffffffffffffffffffffffffffffffffff826200034b565b6200039686836200034b565b95508019841693508086168417925050509392505050565b6000819050919050565b6000819050919050565b6000620003e3620003dd620003d784620003ae565b620003b8565b620003ae565b9050919050565b6000819050919050565b620003ff83620003c2565b620004176200040e82620003ea565b84845462000358565b825550505050565b600090565b6200042e6200041f565b6200043b818484620003f4565b505050565b5b8181101562000463576200045760008262000424565b60018101905062000441565b5050565b601f821115620004b2576200047c8162000326565b62000487846200033b565b8101602085101562000497578190505b620004af620004a6856200033b565b83018262000440565b50505b505050565b600082821c905092915050565b6000620004d760001984600802620004b7565b1980831691505092915050565b6000620004f28383620004c4565b9150826002028217905092915050565b6200050d8262000288565b67ffffffffffffffff81111562000529576200052862000293565b5b620005358254620002f1565b6200054282828562000467565b600060209050601f8311600181146200057a576000841562000565578287015190505b620005718582620004e4565b865550620005e1565b601f1984166200058a8662000326565b60005b82811015620005b4578489015182556001820191506020850194506020810190506200058d565b86831015620005d45784890151620005d0601f891682620004c4565b8355505b6001600288020188555050505b505050505050565b613c7580620005f96000396000f3fe608060405234801561001057600080fd5b50600436106101585760003560e01c80638d75fe05116100c3578063b88d4fde1161007c578063b88d4fde146103d7578063bc569489146103f3578063c87b56dd14610423578063d539139314610453578063d547741f14610471578063e985e9c51461048d57610158565b80638d75fe051461031357806391d148541461033157806395d89b4114610361578063a217fddf1461037f578063a22cb4651461039d578063b65c5e8d146103b957610158565b80632f2ff15d116101155780632f2ff15d1461024357806336568abe1461025f57806342842e0e1461027b5780634d36067e146102975780636352211e146102b357806370a08231146102e357610158565b806301ffc9a71461015d57806306fdde031461018d578063081812fc146101ab578063095ea7b3146101db57806323b872dd146101f7578063248a9ca314610213575b600080fd5b61017760048036038101906101729190612570565b6104bd565b60405161018491906125b8565b60405180910390f35b6101956104cf565b6040516101a29190612663565b60405180910390f35b6101c560048036038101906101c091906126bb565b610561565b6040516101d29190612729565b60405180910390f35b6101f560048036038101906101f09190612770565b6105a7565b005b610211600480360381019061020c91906127b0565b6106be565b005b61022d60048036038101906102289190612839565b61071e565b60405161023a9190612875565b60405180910390f35b61025d60048036038101906102589190612890565b61073e565b005b61027960048036038101906102749190612890565b61075f565b005b610295600480360381019061029091906127b0565b6107e2565b005b6102b160048036038101906102ac9190612a65565b610802565b005b6102cd60048036038101906102c891906126bb565b6108ca565b6040516102da9190612729565b60405180910390f35b6102fd60048036038101906102f89190612b59565b610950565b60405161030a9190612b95565b60405180910390f35b61031b610a07565b6040516103289190612b95565b60405180910390f35b61034b60048036038101906103469190612890565b610a18565b60405161035891906125b8565b60405180910390f35b610369610a83565b6040516103769190612663565b60405180910390f35b610387610b15565b6040516103949190612875565b60405180910390f35b6103b760048036038101906103b29190612bdc565b610b1c565b005b6103c1610b32565b6040516103ce9190612875565b60405180910390f35b6103f160048036038101906103ec9190612cbd565b610b56565b005b61040d600480360381019061040891906126bb565b610bb8565b60405161041a9190612663565b60405180910390f35b61043d600480360381019061043891906126bb565b610d1a565b60405161044a9190612663565b60405180910390f35b61045b610d2c565b6040516104689190612875565b60405180910390f35b61048b60048036038101906104869190612890565b610d50565b005b6104a760048036038101906104a29190612d40565b610d71565b6040516104b491906125b8565b60405180910390f35b60006104c882610e05565b9050919050565b6060600080546104de90612daf565b80601f016020809104026020016040519081016040528092919081815260200182805461050a90612daf565b80156105575780601f1061052c57610100808354040283529160200191610557565b820191906000526020600020905b81548152906001019060200180831161053a57829003601f168201915b5050505050905090565b600061056c82610e7f565b6004600083815260200190815260200160002060009054906101000a900473ffffffffffffffffffffffffffffffffffffffff169050919050565b60006105b2826108ca565b90508073ffffffffffffffffffffffffffffffffffffffff168373ffffffffffffffffffffffffffffffffffffffff1603610622576040517f08c379a000000000000000000000000000000000000000000000000000000000815260040161061990612e52565b60405180910390fd5b8073ffffffffffffffffffffffffffffffffffffffff16610641610eca565b73ffffffffffffffffffffffffffffffffffffffff161480610670575061066f8161066a610eca565b610d71565b5b6106af576040517f08c379a00000000000000000000000000000000000000000000000000000000081526004016106a690612ee4565b60405180910390fd5b6106b98383610ed2565b505050565b6106cf6106c9610eca565b82610f8b565b61070e576040517f08c379a000000000000000000000000000000000000000000000000000000000815260040161070590612f76565b60405180910390fd5b610719838383611020565b505050565b600060076000838152602001908152602001600020600101549050919050565b6107478261071e565b61075081611319565b61075a838361132d565b505050565b610767610eca565b73ffffffffffffffffffffffffffffffffffffffff168173ffffffffffffffffffffffffffffffffffffffff16146107d4576040517f08c379a00000000000000000000000000000000000000000000000000000000081526004016107cb90613008565b60405180910390fd5b6107de828261140e565b5050565b6107fd83838360405180602001604052806000815250610b56565b505050565b7f9f2df0fed2c77648de5860a4cc508cd0818c85b8b8a1ab4ceeef8d981c8956a661082c81611319565b600061083860086114f0565b905061084460086114fe565b61084e8982611514565b6108588189611532565b61086281886115d6565b8383604051610872929190613058565b6040518091039020868660405161088a929190613058565b6040518091039020827fa927ac04d4d3734fe8f2c6d7e10171f210b004d3f2d2a4449bbc6a5f2e5427e360405160405180910390a4505050505050505050565b6000806108d683611643565b9050600073ffffffffffffffffffffffffffffffffffffffff168173ffffffffffffffffffffffffffffffffffffffff1603610947576040517f08c379a000000000000000000000000000000000000000000000000000000000815260040161093e906130bd565b60405180910390fd5b80915050919050565b60008073ffffffffffffffffffffffffffffffffffffffff168273ffffffffffffffffffffffffffffffffffffffff16036109c0576040517f08c379a00000000000000000000000000000000000000000000000000000000081526004016109b79061314f565b60405180910390fd5b600360008373ffffffffffffffffffffffffffffffffffffffff1673ffffffffffffffffffffffffffffffffffffffff168152602001908152602001600020549050919050565b6000610a1360086114f0565b905090565b60006007600084815260200190815260200160002060000160008373ffffffffffffffffffffffffffffffffffffffff1673ffffffffffffffffffffffffffffffffffffffff16815260200190815260200160002060009054906101000a900460ff16905092915050565b606060018054610a9290612daf565b80601f0160208091040260200160405190810160405280929190818152602001828054610abe90612daf565b8015610b0b5780601f10610ae057610100808354040283529160200191610b0b565b820191906000526020600020905b815481529060010190602001808311610aee57829003601f168201915b5050505050905090565b6000801b81565b610b2e610b27610eca565b8383611680565b5050565b7f190acb99f29d9641c9ad47655049f2d7c78fcbc837d62e7981d28c871f72208181565b610b67610b61610eca565b83610f8b565b610ba6576040517f08c379a0000000000000000000000000000000000000000000000000000000008152600401610b9d90612f76565b60405180910390fd5b610bb2848484846117ec565b50505050565b6060610bc382610e7f565b6000610bce836108ca565b90503373ffffffffffffffffffffffffffffffffffffffff168173ffffffffffffffffffffffffffffffffffffffff161480610c375750610c367f190acb99f29d9641c9ad47655049f2d7c78fcbc837d62e7981d28c871f722081610c31610eca565b610a18565b5b610c76576040517f08c379a0000000000000000000000000000000000000000000000000000000008152600401610c6d906131e1565b60405180910390fd5b600960008481526020019081526020016000208054610c9490612daf565b80601f0160208091040260200160405190810160405280929190818152602001828054610cc090612daf565b8015610d0d5780601f10610ce257610100808354040283529160200191610d0d565b820191906000526020600020905b815481529060010190602001808311610cf057829003601f168201915b5050505050915050919050565b6060610d2582611848565b9050919050565b7f9f2df0fed2c77648de5860a4cc508cd0818c85b8b8a1ab4ceeef8d981c8956a681565b610d598261071e565b610d6281611319565b610d6c838361140e565b505050565b6000600560008473ffffffffffffffffffffffffffffffffffffffff1673ffffffffffffffffffffffffffffffffffffffff16815260200190815260200160002060008373ffffffffffffffffffffffffffffffffffffffff1673ffffffffffffffffffffffffffffffffffffffff16815260200190815260200160002060009054906101000a900460ff16905092915050565b60007f7965db0b000000000000000000000000000000000000000000000000000000007bffffffffffffffffffffffffffffffffffffffffffffffffffffffff1916827bffffffffffffffffffffffffffffffffffffffffffffffffffffffff19161480610e785750610e778261195a565b5b9050919050565b610e88816119bb565b610ec7576040517f08c379a0000000000000000000000000000000000000000000000000000000008152600401610ebe906130bd565b60405180910390fd5b50565b600033905090565b816004600083815260200190815260200160002060006101000a81548173ffffffffffffffffffffffffffffffffffffffff021916908373ffffffffffffffffffffffffffffffffffffffff160217905550808273ffffffffffffffffffffffffffffffffffffffff16610f45836108ca565b73ffffffffffffffffffffffffffffffffffffffff167f8c5be1e5ebec7d5bd14f71427d1e84f3dd0314c0f7b2291e5b200ac8c7c3b92560405160405180910390a45050565b600080610f97836108ca565b90508073ffffffffffffffffffffffffffffffffffffffff168473ffffffffffffffffffffffffffffffffffffffff161480610fd95750610fd88185610d71565b5b8061101757508373ffffffffffffffffffffffffffffffffffffffff16610fff84610561565b73ffffffffffffffffffffffffffffffffffffffff16145b91505092915050565b8273ffffffffffffffffffffffffffffffffffffffff16611040826108ca565b73ffffffffffffffffffffffffffffffffffffffff1614611096576040517f08c379a000000000000000000000000000000000000000000000000000000000815260040161108d90613273565b60405180910390fd5b600073ffffffffffffffffffffffffffffffffffffffff168273ffffffffffffffffffffffffffffffffffffffff1603611105576040517f08c379a00000000000000000000000000000000000000000000000000000000081526004016110fc90613305565b60405180910390fd5b61111283838360016119fc565b8273ffffffffffffffffffffffffffffffffffffffff16611132826108ca565b73ffffffffffffffffffffffffffffffffffffffff1614611188576040517f08c379a000000000000000000000000000000000000000000000000000000000815260040161117f90613273565b60405180910390fd5b6004600082815260200190815260200160002060006101000a81549073ffffffffffffffffffffffffffffffffffffffff02191690556001600360008573ffffffffffffffffffffffffffffffffffffffff1673ffffffffffffffffffffffffffffffffffffffff168152602001908152602001600020600082825403925050819055506001600360008473ffffffffffffffffffffffffffffffffffffffff1673ffffffffffffffffffffffffffffffffffffffff16815260200190815260200160002060008282540192505081905550816002600083815260200190815260200160002060006101000a81548173ffffffffffffffffffffffffffffffffffffffff021916908373ffffffffffffffffffffffffffffffffffffffff160217905550808273ffffffffffffffffffffffffffffffffffffffff168473ffffffffffffffffffffffffffffffffffffffff167fddf252ad1be2c89b69c2b068fc378daa952ba7f163c4a11628f55a4df523b3ef60405160405180910390a46113148383836001611a02565b505050565b61132a81611325610eca565b611a08565b50565b6113378282610a18565b61140a5760016007600084815260200190815260200160002060000160008373ffffffffffffffffffffffffffffffffffffffff1673ffffffffffffffffffffffffffffffffffffffff16815260200190815260200160002060006101000a81548160ff0219169083151502179055506113af610eca565b73ffffffffffffffffffffffffffffffffffffffff168173ffffffffffffffffffffffffffffffffffffffff16837f2f8788117e7eff1d82e926ec794901d17c78024a50270940304540a733656f0d60405160405180910390a45b5050565b6114188282610a18565b156114ec5760006007600084815260200190815260200160002060000160008373ffffffffffffffffffffffffffffffffffffffff1673ffffffffffffffffffffffffffffffffffffffff16815260200190815260200160002060006101000a81548160ff021916908315150217905550611491610eca565b73ffffffffffffffffffffffffffffffffffffffff168173ffffffffffffffffffffffffffffffffffffffff16837ff6391f5c32d9c69d2a47ea670b442974b53935d1edc7fd64eb21e047a839171b60405160405180910390a45b5050565b600081600001549050919050565b6001816000016000828254019250508190555050565b61152e828260405180602001604052806000815250611a8d565b5050565b61153b826119bb565b61157a576040517f08c379a000000000000000000000000000000000000000000000000000000000815260040161157190613397565b60405180910390fd5b8060066000848152602001908152602001600020908161159a9190613563565b507ff8e1a15aba9398e019f0b49df1a4fde98ee17ae345cb5f6b5e2c27f5033e8ce7826040516115ca9190612b95565b60405180910390a15050565b6115df826119bb565b61161e576040517f08c379a0000000000000000000000000000000000000000000000000000000008152600401611615906136a7565b60405180910390fd5b8060096000848152602001908152602001600020908161163e9190613563565b505050565b60006002600083815260200190815260200160002060009054906101000a900473ffffffffffffffffffffffffffffffffffffffff169050919050565b8173ffffffffffffffffffffffffffffffffffffffff168373ffffffffffffffffffffffffffffffffffffffff16036116ee576040517f08c379a00000000000000000000000000000000000000000000000000000000081526004016116e590613713565b60405180910390fd5b80600560008573ffffffffffffffffffffffffffffffffffffffff1673ffffffffffffffffffffffffffffffffffffffff16815260200190815260200160002060008473ffffffffffffffffffffffffffffffffffffffff1673ffffffffffffffffffffffffffffffffffffffff16815260200190815260200160002060006101000a81548160ff0219169083151502179055508173ffffffffffffffffffffffffffffffffffffffff168373ffffffffffffffffffffffffffffffffffffffff167f17307eab39ab6107e8899845ad3d59bd9653f200f220920489ca2b5937696c31836040516117df91906125b8565b60405180910390a3505050565b6117f7848484611020565b61180384848484611ae8565b611842576040517f08c379a0000000000000000000000000000000000000000000000000000000008152600401611839906137a5565b60405180910390fd5b50505050565b606061185382610e7f565b600060066000848152602001908152602001600020805461187390612daf565b80601f016020809104026020016040519081016040528092919081815260200182805461189f90612daf565b80156118ec5780601f106118c1576101008083540402835291602001916118ec565b820191906000526020600020905b8154815290600101906020018083116118cf57829003601f168201915b5050505050905060006118fd611c6f565b90506000815103611912578192505050611955565b60008251111561194757808260405160200161192f9291906137f6565b60405160208183030381529060405292505050611955565b61195084611c86565b925050505b919050565b6000634906490660e01b7bffffffffffffffffffffffffffffffffffffffffffffffffffffffff1916827bffffffffffffffffffffffffffffffffffffffffffffffffffffffff191614806119b457506119b382611cee565b5b9050919050565b60008073ffffffffffffffffffffffffffffffffffffffff166119dd83611643565b73ffffffffffffffffffffffffffffffffffffffff1614159050919050565b50505050565b50505050565b611a128282610a18565b611a8957611a1f81611dd0565b611a2d8360001c6020611dfd565b604051602001611a3e9291906138b2565b6040516020818303038152906040526040517f08c379a0000000000000000000000000000000000000000000000000000000008152600401611a809190612663565b60405180910390fd5b5050565b611a978383612039565b611aa46000848484611ae8565b611ae3576040517f08c379a0000000000000000000000000000000000000000000000000000000008152600401611ada906137a5565b60405180910390fd5b505050565b6000611b098473ffffffffffffffffffffffffffffffffffffffff16612256565b15611c62578373ffffffffffffffffffffffffffffffffffffffff1663150b7a02611b32610eca565b8786866040518563ffffffff1660e01b8152600401611b549493929190613941565b6020604051808303816000875af1925050508015611b9057506040513d601f19601f82011682018060405250810190611b8d91906139a2565b60015b611c12573d8060008114611bc0576040519150601f19603f3d011682016040523d82523d6000602084013e611bc5565b606091505b506000815103611c0a576040517f08c379a0000000000000000000000000000000000000000000000000000000008152600401611c01906137a5565b60405180910390fd5b805181602001fd5b63150b7a0260e01b7bffffffffffffffffffffffffffffffffffffffffffffffffffffffff1916817bffffffffffffffffffffffffffffffffffffffffffffffffffffffff191614915050611c67565b600190505b949350505050565b606060405180602001604052806000815250905090565b6060611c9182610e7f565b6000611c9b611c6f565b90506000815111611cbb5760405180602001604052806000815250611ce6565b80611cc584612279565b604051602001611cd69291906137f6565b6040516020818303038152906040525b915050919050565b60007f80ac58cd000000000000000000000000000000000000000000000000000000007bffffffffffffffffffffffffffffffffffffffffffffffffffffffff1916827bffffffffffffffffffffffffffffffffffffffffffffffffffffffff19161480611db957507f5b5e139f000000000000000000000000000000000000000000000000000000007bffffffffffffffffffffffffffffffffffffffffffffffffffffffff1916827bffffffffffffffffffffffffffffffffffffffffffffffffffffffff1916145b80611dc95750611dc882612347565b5b9050919050565b6060611df68273ffffffffffffffffffffffffffffffffffffffff16601460ff16611dfd565b9050919050565b606060006002836002611e1091906139fe565b611e1a9190613a40565b67ffffffffffffffff811115611e3357611e326128da565b5b6040519080825280601f01601f191660200182016040528015611e655781602001600182028036833780820191505090505b5090507f300000000000000000000000000000000000000000000000000000000000000081600081518110611e9d57611e9c613a74565b5b60200101907effffffffffffffffffffffffffffffffffffffffffffffffffffffffffffff1916908160001a9053507f780000000000000000000000000000000000000000000000000000000000000081600181518110611f0157611f00613a74565b5b60200101907effffffffffffffffffffffffffffffffffffffffffffffffffffffffffffff1916908160001a90535060006001846002611f4191906139fe565b611f4b9190613a40565b90505b6001811115611feb577f3031323334353637383961626364656600000000000000000000000000000000600f861660108110611f8d57611f8c613a74565b5b1a60f81b828281518110611fa457611fa3613a74565b5b60200101907effffffffffffffffffffffffffffffffffffffffffffffffffffffffffffff1916908160001a905350600485901c945080611fe490613aa3565b9050611f4e565b506000841461202f576040517f08c379a000000000000000000000000000000000000000000000000000000000815260040161202690613b18565b60405180910390fd5b8091505092915050565b600073ffffffffffffffffffffffffffffffffffffffff168273ffffffffffffffffffffffffffffffffffffffff16036120a8576040517f08c379a000000000000000000000000000000000000000000000000000000000815260040161209f90613b84565b60405180910390fd5b6120b1816119bb565b156120f1576040517f08c379a00000000000000000000000000000000000000000000000000000000081526004016120e890613bf0565b60405180910390fd5b6120ff6000838360016119fc565b612108816119bb565b15612148576040517f08c379a000000000000000000000000000000000000000000000000000000000815260040161213f90613bf0565b60405180910390fd5b6001600360008473ffffffffffffffffffffffffffffffffffffffff1673ffffffffffffffffffffffffffffffffffffffff16815260200190815260200160002060008282540192505081905550816002600083815260200190815260200160002060006101000a81548173ffffffffffffffffffffffffffffffffffffffff021916908373ffffffffffffffffffffffffffffffffffffffff160217905550808273ffffffffffffffffffffffffffffffffffffffff16600073ffffffffffffffffffffffffffffffffffffffff167fddf252ad1be2c89b69c2b068fc378daa952ba7f163c4a11628f55a4df523b3ef60405160405180910390a4612252600083836001611a02565b5050565b6000808273ffffffffffffffffffffffffffffffffffffffff163b119050919050565b606060006001612288846123b1565b01905060008167ffffffffffffffff8111156122a7576122a66128da565b5b6040519080825280601f01601f1916602001820160405280156122d95781602001600182028036833780820191505090505b509050600082602001820190505b60011561233c578080600190039150507f3031323334353637383961626364656600000000000000000000000000000000600a86061a8153600a85816123305761232f613c10565b5b049450600085036122e7575b819350505050919050565b60007f01ffc9a7000000000000000000000000000000000000000000000000000000007bffffffffffffffffffffffffffffffffffffffffffffffffffffffff1916827bffffffffffffffffffffffffffffffffffffffffffffffffffffffff1916149050919050565b600080600090507a184f03e93ff9f4daa797ed6e38ed64bf6a1f010000000000000000831061240f577a184f03e93ff9f4daa797ed6e38ed64bf6a1f010000000000000000838161240557612404613c10565b5b0492506040810190505b6d04ee2d6d415b85acef8100000000831061244c576d04ee2d6d415b85acef8100000000838161244257612441613c10565b5b0492506020810190505b662386f26fc10000831061247b57662386f26fc10000838161247157612470613c10565b5b0492506010810190505b6305f5e10083106124a4576305f5e100838161249a57612499613c10565b5b0492506008810190505b61271083106124c95761271083816124bf576124be613c10565b5b0492506004810190505b606483106124ec57606483816124e2576124e1613c10565b5b0492506002810190505b600a83106124fb576001810190505b80915050919050565b6000604051905090565b600080fd5b600080fd5b60007fffffffff0000000000000000000000000000000000000000000000000000000082169050919050565b61254d81612518565b811461255857600080fd5b50565b60008135905061256a81612544565b92915050565b6000602082840312156125865761258561250e565b5b60006125948482850161255b565b91505092915050565b60008115159050919050565b6125b28161259d565b82525050565b60006020820190506125cd60008301846125a9565b92915050565b600081519050919050565b600082825260208201905092915050565b60005b8381101561260d5780820151818401526020810190506125f2565b60008484015250505050565b6000601f19601f8301169050919050565b6000612635826125d3565b61263f81856125de565b935061264f8185602086016125ef565b61265881612619565b840191505092915050565b6000602082019050818103600083015261267d818461262a565b905092915050565b6000819050919050565b61269881612685565b81146126a357600080fd5b50565b6000813590506126b58161268f565b92915050565b6000602082840312156126d1576126d061250e565b5b60006126df848285016126a6565b91505092915050565b600073ffffffffffffffffffffffffffffffffffffffff82169050919050565b6000612713826126e8565b9050919050565b61272381612708565b82525050565b600060208201905061273e600083018461271a565b92915050565b61274d81612708565b811461275857600080fd5b50565b60008135905061276a81612744565b92915050565b600080604083850312156127875761278661250e565b5b60006127958582860161275b565b92505060206127a6858286016126a6565b9150509250929050565b6000806000606084860312156127c9576127c861250e565b5b60006127d78682870161275b565b93505060206127e88682870161275b565b92505060406127f9868287016126a6565b9150509250925092565b6000819050919050565b61281681612803565b811461282157600080fd5b50565b6000813590506128338161280d565b92915050565b60006020828403121561284f5761284e61250e565b5b600061285d84828501612824565b91505092915050565b61286f81612803565b82525050565b600060208201905061288a6000830184612866565b92915050565b600080604083850312156128a7576128a661250e565b5b60006128b585828601612824565b92505060206128c68582860161275b565b9150509250929050565b600080fd5b600080fd5b7f4e487b7100000000000000000000000000000000000000000000000000000000600052604160045260246000fd5b61291282612619565b810181811067ffffffffffffffff82111715612931576129306128da565b5b80604052505050565b6000612944612504565b90506129508282612909565b919050565b600067ffffffffffffffff8211156129705761296f6128da565b5b61297982612619565b9050602081019050919050565b82818337600083830152505050565b60006129a86129a384612955565b61293a565b9050828152602081018484840111156129c4576129c36128d5565b5b6129cf848285612986565b509392505050565b600082601f8301126129ec576129eb6128d0565b5b81356129fc848260208601612995565b91505092915050565b600080fd5b600080fd5b60008083601f840112612a2557612a246128d0565b5b8235905067ffffffffffffffff811115612a4257612a41612a05565b5b602083019150836001820283011115612a5e57612a5d612a0a565b5b9250929050565b600080600080600080600060a0888a031215612a8457612a8361250e565b5b6000612a928a828b0161275b565b975050602088013567ffffffffffffffff811115612ab357612ab2612513565b5b612abf8a828b016129d7565b965050604088013567ffffffffffffffff811115612ae057612adf612513565b5b612aec8a828b016129d7565b955050606088013567ffffffffffffffff811115612b0d57612b0c612513565b5b612b198a828b01612a0f565b9450945050608088013567ffffffffffffffff811115612b3c57612b3b612513565b5b612b488a828b01612a0f565b925092505092959891949750929550565b600060208284031215612b6f57612b6e61250e565b5b6000612b7d8482850161275b565b91505092915050565b612b8f81612685565b82525050565b6000602082019050612baa6000830184612b86565b92915050565b612bb98161259d565b8114612bc457600080fd5b50565b600081359050612bd681612bb0565b92915050565b60008060408385031215612bf357612bf261250e565b5b6000612c018582860161275b565b9250506020612c1285828601612bc7565b9150509250929050565b600067ffffffffffffffff821115612c3757612c366128da565b5b612c4082612619565b9050602081019050919050565b6000612c60612c5b84612c1c565b61293a565b905082815260208101848484011115612c7c57612c7b6128d5565b5b612c87848285612986565b509392505050565b600082601f830112612ca457612ca36128d0565b5b8135612cb4848260208601612c4d565b91505092915050565b60008060008060808587031215612cd757612cd661250e565b5b6000612ce58782880161275b565b9450506020612cf68782880161275b565b9350506040612d07878288016126a6565b925050606085013567ffffffffffffffff811115612d2857612d27612513565b5b612d3487828801612c8f565b91505092959194509250565b60008060408385031215612d5757612d5661250e565b5b6000612d658582860161275b565b9250506020612d768582860161275b565b9150509250929050565b7f4e487b7100000000000000000000000000000000000000000000000000000000600052602260045260246000fd5b60006002820490506001821680612dc757607f821691505b602082108103612dda57612dd9612d80565b5b50919050565b7f4552433732313a20617070726f76616c20746f2063757272656e74206f776e6560008201527f7200000000000000000000000000000000000000000000000000000000000000602082015250565b6000612e3c6021836125de565b9150612e4782612de0565b604082019050919050565b60006020820190508181036000830152612e6b81612e2f565b9050919050565b7f4552433732313a20617070726f76652063616c6c6572206973206e6f7420746f60008201527f6b656e206f776e6572206f7220617070726f76656420666f7220616c6c000000602082015250565b6000612ece603d836125de565b9150612ed982612e72565b604082019050919050565b60006020820190508181036000830152612efd81612ec1565b9050919050565b7f4552433732313a2063616c6c6572206973206e6f7420746f6b656e206f776e6560008201527f72206f7220617070726f76656400000000000000000000000000000000000000602082015250565b6000612f60602d836125de565b9150612f6b82612f04565b604082019050919050565b60006020820190508181036000830152612f8f81612f53565b9050919050565b7f416363657373436f6e74726f6c3a2063616e206f6e6c792072656e6f756e636560008201527f20726f6c657320666f722073656c660000000000000000000000000000000000602082015250565b6000612ff2602f836125de565b9150612ffd82612f96565b604082019050919050565b6000602082019050818103600083015261302181612fe5565b9050919050565b600081905092915050565b600061303f8385613028565b935061304c838584612986565b82840190509392505050565b6000613065828486613033565b91508190509392505050565b7f4552433732313a20696e76616c696420746f6b656e2049440000000000000000600082015250565b60006130a76018836125de565b91506130b282613071565b602082019050919050565b600060208201905081810360008301526130d68161309a565b9050919050565b7f4552433732313a2061646472657373207a65726f206973206e6f74206120766160008201527f6c6964206f776e65720000000000000000000000000000000000000000000000602082015250565b60006131396029836125de565b9150613144826130dd565b604082019050919050565b600060208201905081810360008301526131688161312c565b9050919050565b7f455243373231436f413a206d757374206265206f776e6572206f72207265676960008201527f7374657265642061757468656e74696361746f72000000000000000000000000602082015250565b60006131cb6034836125de565b91506131d68261316f565b604082019050919050565b600060208201905081810360008301526131fa816131be565b9050919050565b7f4552433732313a207472616e736665722066726f6d20696e636f72726563742060008201527f6f776e6572000000000000000000000000000000000000000000000000000000602082015250565b600061325d6025836125de565b915061326882613201565b604082019050919050565b6000602082019050818103600083015261328c81613250565b9050919050565b7f4552433732313a207472616e7366657220746f20746865207a65726f2061646460008201527f7265737300000000000000000000000000000000000000000000000000000000602082015250565b60006132ef6024836125de565b91506132fa82613293565b604082019050919050565b6000602082019050818103600083015261331e816132e2565b9050919050565b7f45524337323155524953746f726167653a2055524920736574206f66206e6f6e60008201527f6578697374656e7420746f6b656e000000000000000000000000000000000000602082015250565b6000613381602e836125de565b915061338c82613325565b604082019050919050565b600060208201905081810360008301526133b081613374565b9050919050565b60008190508160005260206000209050919050565b60006020601f8301049050919050565b600082821b905092915050565b6000600883026134197fffffffffffffffffffffffffffffffffffffffffffffffffffffffffffffffff826133dc565b61342386836133dc565b95508019841693508086168417925050509392505050565b6000819050919050565b600061346061345b61345684612685565b61343b565b612685565b9050919050565b6000819050919050565b61347a83613445565b61348e61348682613467565b8484546133e9565b825550505050565b600090565b6134a3613496565b6134ae818484613471565b505050565b5b818110156134d2576134c760008261349b565b6001810190506134b4565b5050565b601f821115613517576134e8816133b7565b6134f1846133cc565b81016020851015613500578190505b61351461350c856133cc565b8301826134b3565b50505b505050565b600082821c905092915050565b600061353a6000198460080261351c565b1980831691505092915050565b60006135538383613529565b9150826002028217905092915050565b61356c826125d3565b67ffffffffffffffff811115613585576135846128da565b5b61358f8254612daf565b61359a8282856134d6565b600060209050601f8311600181146135cd57600084156135bb578287015190505b6135c58582613547565b86555061362d565b601f1984166135db866133b7565b60005b82811015613603578489015182556001820191506020850194506020810190506135de565b86831015613620578489015161361c601f891682613529565b8355505b6001600288020188555050505b505050505050565b7f455243373231436f413a205552492073657420746f206e6f6e2065786973746960008201527f6e6720746f6b656e000000000000000000000000000000000000000000000000602082015250565b60006136916028836125de565b915061369c82613635565b604082019050919050565b600060208201905081810360008301526136c081613684565b9050919050565b7f4552433732313a20617070726f766520746f2063616c6c657200000000000000600082015250565b60006136fd6019836125de565b9150613708826136c7565b602082019050919050565b6000602082019050818103600083015261372c816136f0565b9050919050565b7f4552433732313a207472616e7366657220746f206e6f6e20455243373231526560008201527f63656976657220696d706c656d656e7465720000000000000000000000000000602082015250565b600061378f6032836125de565b915061379a82613733565b604082019050919050565b600060208201905081810360008301526137be81613782565b9050919050565b60006137d0826125d3565b6137da8185613028565b93506137ea8185602086016125ef565b80840191505092915050565b600061380282856137c5565b915061380e82846137c5565b91508190509392505050565b7f416363657373436f6e74726f6c3a206163636f756e7420000000000000000000600082015250565b6000613850601783613028565b915061385b8261381a565b601782019050919050565b7f206973206d697373696e6720726f6c6520000000000000000000000000000000600082015250565b600061389c601183613028565b91506138a782613866565b601182019050919050565b60006138bd82613843565b91506138c982856137c5565b91506138d48261388f565b91506138e082846137c5565b91508190509392505050565b600081519050919050565b600082825260208201905092915050565b6000613913826138ec565b61391d81856138f7565b935061392d8185602086016125ef565b61393681612619565b840191505092915050565b6000608082019050613956600083018761271a565b613963602083018661271a565b6139706040830185612b86565b81810360608301526139828184613908565b905095945050505050565b60008151905061399c81612544565b92915050565b6000602082840312156139b8576139b761250e565b5b60006139c68482850161398d565b91505092915050565b7f4e487b7100000000000000000000000000000000000000000000000000000000600052601160045260246000fd5b6000613a0982612685565b9150613a1483612685565b9250828202613a2281612685565b91508282048414831517613a3957613a386139cf565b5b5092915050565b6000613a4b82612685565b9150613a5683612685565b9250828201905080821115613a6e57613a6d6139cf565b5b92915050565b7f4e487b7100000000000000000000000000000000000000000000000000000000600052603260045260246000fd5b6000613aae82612685565b915060008203613ac157613ac06139cf565b5b600182039050919050565b7f537472696e67733a20686578206c656e67746820696e73756666696369656e74600082015250565b6000613b026020836125de565b9150613b0d82613acc565b602082019050919050565b60006020820190508181036000830152613b3181613af5565b9050919050565b7f4552433732313a206d696e7420746f20746865207a65726f2061646472657373600082015250565b6000613b6e6020836125de565b9150613b7982613b38565b602082019050919050565b60006020820190508181036000830152613b9d81613b61565b9050919050565b7f4552433732313a20746f6b656e20616c7265616479206d696e74656400000000600082015250565b6000613bda601c836125de565b9150613be582613ba4565b602082019050919050565b60006020820190508181036000830152613c0981613bcd565b9050919050565b7f4e487b7100000000000000000000000000000000000000000000000000000000600052601260045260246000fdfea264697066735822122016f52693dbea3f041e94861496fac48df3c2df387e0615d072e5fa17a5f5c10a64736f6c63430008130033",
  "linkReferences": {},
  "deployedLinkReferences": {}
}